:020000040800F2
:10000000E00400209D010008271D0008E51B0008F2
:10001000251D00083D0700084323000800000000DC
:100020000000000000000000000000002B1D000880
:100030003F07000800000000291D00082D1D0008D2
:10004000B7010008B7010008B7010008B7010008B0
:10005000B7010008B7010008B7010008B7010008A0
:10006000B7010008B7010008B7010008B701000890
:10007000B7010008B7010008B7010008B701000880
:10008000B7010008B7010008B7010008B701000870
:10009000B7010008B7010008B7010008B701000860
:1000A000B7010008B7010008B7010008B701000850
:1000B000B7010008D11D0008B7010008B70100080A
:1000C000B7010008B7010008B7010008B701000830
:1000D000B7010008B7010008B7010008B701000820
:1000E000B7010008B7010008B7010008B701000810
:1000F000B7010008B7010008B7010008B701000800
:10010000B7010008B7010008B7010008B7010008EF
:10011000B7010008B7010008B7010008B7010008DF
:10012000B7010008B7010008B7010008B7010008CF
:10013000B7010008B7010008B7010008B7010008BF
:10014000B7010008B7010008B7010008B7010008AF
:10015000B7010008B7010008B7010008B70100089F
:10016000B7010008B7010008B7010008B70100088F
:10017000B7010008B7010008B7010008000000003F
:10018000B7010008B7010008DFF80CD000F0C4FA8E
:1001900000480047512C0008E00400200648804732
:1001A00006480047FEE7FEE7FEE7FEE7FEE7FEE75C
:1001B000FEE7FEE7FEE7FEE7C11D00088901000833
:1001C0002DE9F05F0546002092469B46884606468C
:1001D000814640241BE0284641464746224600F01F
:1001E000ECF953465A46C01A914110D311461846AD
:1001F000224600F0D3F92D1A67EB01084F4622463C
:100200000120002100F0CAF917EB00094E41201E21
:10021000A4F10104DFDC484631462A464346BDE8E6
:10022000F09FD2B201E000F8012B491EFBD27047CB
:100230000022F6E710B513460A4604461946FFF7B2
:10024000F0FF204610BD2DE9FE4F804681EA0300F5
:10025000C00F0C46009021F0004123F00045B8EBA0
:100260000200A94105D24046214690461C460B4655
:10027000024623F00040104347D0270DC7F30A0081
:10028000C3F30A510290401A019040286BDAC3F37D
:10029000130040F4801B0098924620B10023D2EB5B
:1002A000030A63EB0B0B01985946C0F1400250461C
:1002B00000F074F906460D4650465946019A00F082
:1002C0008CF910EB08006141002487EA115284EA9E
:1002D000E7731A4340D0009A62B3019A012A4FEAA9
:1002E000075215DC001B61EB02014FF0004202EAED
:1002F0000752CDE90042001C41F5801132462B46E1
:1003000000F08CF903B0BDE8F08F40462146F9E7D4
:10031000001B61EB0201001C41F5801300185B41DA
:100320002018A2F5001747EB030140EAD570B61973
:100330006D4111E06D084FEA360645EAC0754FEA97
:100340000752001B61EB0201001C41F580114908B6
:100350004FEA30000019514132462B4603B0BDE848
:10036000F04F00F04CB90098012240000023D0EB80
:10037000020263EBE073009821464FEAE074B8EBA9
:10038000000061EB0401E9E783F000435BE781F0E3
:10039000004158E72DE9FE4F81EA030404F00044D0
:1003A00021F0004100944FF0000B23F0004350EA8D
:1003B00001045ED052EA03045BD0C3F30A54C1F3D4
:1003C0000A552C44A4F2F3340194A0FB0254C1F367
:1003D000130141F48011C3F3130343F4801301FBB1
:1003E000024400FB034E840A970A44EA815447EA18
:1003F0008357A4FB076802958D0A05FB07854FEA22
:10040000932C04FB0C542705029D4FEA065847EA3B
:100410001637B5EB08056EEB070C870E920E47EA10
:10042000811742EA8312A7FB0201B6EB0B0164EBD2
:1004300000042B0D43EA0C335E1844EB1C50DA46E3
:100440005146E7FB0201C5F313044FEA0B3343EABD
:1004500014534FEA0432019C43EA0603A4F10C044E
:100460000294009CCDE900B400F0D8F803B0BDE8D8
:10047000F08F00200146F9E72DE9F04D81EA0304F1
:1004800004F0004B21F0004514464FF0000A23F021
:10049000004150EA050220D054EA01021DD0C5F304
:1004A0000A570246C5F31303C1F31300C1F30A56FA
:1004B00040F4801543F48013A7EB0608101BD646C2
:1004C00008F2FD3873EB050002D308F1010801E0E2
:1004D00092185B41B8F1000F03DA00200146BDE835
:1004E000F08D00204FF48011064684460EE0171B65
:1004F00073EB050705D3121B63EB050306434CEAB8
:10050000010C49084FEA300092185B4150EA01079C
:10051000EDD152EA030012D082EA040083EA050119
:10052000084305D0101BAB4106D20122002306E090
:1005300000224FF0004302E06FF0010253101AEB6B
:1005400006004CEB085110EB0A0041EB0B01BDE833
:10055000F04D00F054B80EB540F233410291002145
:10056000CDE900110A460B4600F058F803B000BD73
:1005700030B50B46014600202022012409E021FA73
:1005800002F59D4205D303FA02F5491B04FA02F570
:100590002844151EA2F10102F1DC30BD202A04DB43
:1005A000203A00FA02F1002070479140C2F1200386
:1005B00020FA03F3194390407047202A04DB203AC5
:1005C00021FA02F00021704721FA02F3D040C2F173
:1005D00020029140084319467047202A06DBCB17BA
:1005E000203A41FA02F043EAE07306E041FA02F3EE
:1005F000D040C2F12002914008431946704710B51F
:10060000141E73F1000408DA401C41F10001921835
:100610005B411A4301D120F0010010BD2DE9F04DDE
:1006200092469B4611B1B1FA81F202E0B0FA80F233
:1006300020329046FFF7B2FF04460F4640EA0A0018
:1006400041EA0B0153465A46084313D0114653EA78
:10065000010019D0C8F140025046FFF7AEFF054631
:100660000E46504659464246FFF798FF084305D0CC
:10067000012004E020463946BDE8F08D0020054306
:1006800046EAE0762C4337430A986305E40AA0EB78
:1006900008000022FD0A44EA47540A3002D500202F
:1006A0000146E9E7010510196941DDE9084500192E
:1006B0006941BDE8F04DA2E7C1F30A52C1F313014D
:1006C00040F2FF3341F480119A4202DA00200146E1
:1006D000704740F233439A42A2F2334202DC524264
:1006E000FFF76BBFFFF75ABF30B5041E71F100046E
:1006F00004DB4FF00044404264EB0101141E73F12F
:10070000000405DB1C464FF00043524263EB040338
:10071000994208BF904230BD064C074D06E0E068A4
:1007200040F0010394E8070098471034AC42F6D338
:10073000FFF72EFD502D0008702D0008FEE77047D2
:1007400072B6FEE770B5044600F006F90546601C77
:1007500002D004480078044400F0FEF8401BA04298
:10076000FAD370BD300000202DE9F84FDFF8BCA1AE
:100770000022012503264FF00F090AF1040BAAF10C
:10078000040E00BF0B6805FA02F42340A34270D1A7
:100790000F7907F00307012F01D0022F16D18768C8
:1007A0004FEA420806FA08FC27EA0C07D1F80CC009
:1007B0000CFA08FC4CEA070CC0F808C04768A743CD
:1007C0000C79C4F3001494403C4344600C79E44336
:1007D000A4070AD0C4684FEA420C06FA0CF7BC43DF
:1007E0008F6807FA0CF72743C7600C7904F00304FD
:1007F000022C12D1D40800EB840CDCF820405707FF
:10080000FF0E09FA07F824EA0804D1F8108008FA64
:1008100007F848EA0408CCF8208004684FEA420C44
:1008200006FA0CF7BC430F7907F0030707FA0CF739
:10083000274307604C6814F4403F70D03C4C276855
:1008400047F480472760246822F0030704F48044BB
:100850000094384C07EB040CDCF8084897074FEA83
:10086000177809FA08F7BC43334FB84202D1002782
:1008700024E054E0314FB84201D101271EE0304F4F
:10088000B84201D1022719E02E4FB84201D1032707
:1008900014E02D4FB84201D104270FE02B4FB8428E
:1008A00001D105270AE02A4FB84201D1062705E009
:1008B000284FB84201D1072700E0082707FA08F7B8
:1008C0002743CCF80878DAF800405746D1F804C03E
:1008D0009C435FEACC2C00D51C433C60DBF8004015
:1008E0005F46D1F804C09C435FEA8C2C00D51C43C2
:1008F0003C60DEF800407746D1F804C09C435FEAD4
:100900008C3C00D51C433C60084F083F3C68D1F844
:1009100004C09C435FEACC3C00D51C433C60521CA5
:10092000102AFFF42FAFBDE8F88F0000083C01400B
:100930004438024000300140000002400004024000
:1009400000080240000C0240001002400014024067
:1009500000180240001C02400148806870470000F7
:10096000300000200248816802781144816070479D
:10097000300000200B4810B5016841F4007101609F
:10098000016841F480610160016841F48071016097
:10099000032000F06FF80F2000F006F800F024F8B4
:1009A000002010BD003C024070B50D4D04464FF4D0
:1009B0007A712878B1FBF0F00A490968B1FBF0F0D0
:1009C00000F00CFB48B9102C07D200222146501E23
:1009D00000F030F800206C6070BD012070BD000098
:1009E000300000203C0000200A4808B5016841F4AE
:1009F00080410160006800F4804000900548001FBD
:100A0000016841F080510160006800F08050009062
:100A100008BD000044380240002809DB00F01F0236
:100A2000012191404009800000F1E020C0F8001150
:100A300070470000F0B40E4B1B680C46C3F3022352
:100A4000C3F10705042D00D90425191D072901D27A
:100A5000002300E0DB1E012606FA05F1491E2140B5
:100A600099409E40761E16403143F0BC01F07ABC9E
:100A70000CED00E0064900F0070208684FF6FF039E
:100A8000184040EA0220034A104308607047000003
:100A90000CED00E00000FA052DE9F0470E460500D8
:100AA00065D0DFF81481D8F80000F7B200F0070035
:100AB000B04207D288F80070D8F8000000F00700B4
:100AC000B04254D128683D4C810712D5400703D568
:100AD000206840F4E05020602878000703D52068A3
:100AE00040F4604020602068A96820F0F0000843CE
:100AF00020602878C0072DD030496868083901285F
:100B000012D0022813D0032811D0096889070029C0
:100B10002DDA216821F0030101432160FFF71CFF5A
:100B2000814641F2883A0EE009688903EFE70968D7
:100B30008901ECE7FFF710FFA0EB0901514502D94D
:100B40000320BDE8F0872068696800F00C00B0EB76
:100B5000810FEFD1D8F80010404601F00701B142F3
:100B600007D90770006800F00700B04201D00120EB
:100B7000E7E72878400705D52068E96820F4E050C9
:100B8000084320602878000706D52068296920F4EA
:100B9000604040EAC100206000F038F82168084A4F
:100BA000C1F30311515CC84006490860064800685B
:100BB000FFF7FAFE0020C4E7003C0240083802407C
:100BC000EC2C00083C0000203400002004480549BB
:100BD00000680968044AC1F38221515CC84070472B
:100BE0003C00002008380240FC2C0008044805495D
:100BF00000680968044AC1F34231515CC84070473B
:100C00003C00002008380240FC2C0008154810B5B4
:100C1000006810F00C02144813D01449042A0FD0B5
:100C2000082A0ED10F4C241F2268236802F03F02CD
:100C30005B0207D52068C0F38810A0FB010106E025
:100C4000084610BD2168C1F38811A1FB00010023F3
:100C5000FFF7B6FA2168C1F30141491C4900B0FB16
:100C6000F1F010BD083802400024F40040787D0106
:100C70002DE9F84F04006ED02078DFF84C93C007C0
:100C8000A9F104054AD009F104000168C1F381010A
:100C9000012908D00068C0F3810002280AD1D9F8E0
:100CA0000000400206D52868800337D56068002818
:100CB000E1D033E06068B0F5803F10D0B0F5A02FF0
:100CC000286810D020F480302860286820F4802024
:100CD00028606068A8B1FFF73FFE06460DE028686F
:100CE00040F48030F4E740F480202860F7E700BF4C
:100CF000FFF732FE801B642873D828688003F7D57D
:100D00000CE0FFF729FE064605E000BFFFF724FED2
:100D1000801B6428F0D828688003F7D42078DFF897
:100D2000AC8280074FF0000A3ED5A748001D01683D
:100D300011F00C0F08D00068C0F3810002280BD11D
:100D4000D9F80000400207D42868800716D5E0686B
:100D5000012800D112E033E1E068B8B10120C8F801
:100D60000000FFF7F9FD064605E000BFFFF7F4FDC0
:100D7000801B0228C0D828688007F7D52868216919
:100D800020F0F80040EAC10028600DE0C8F800A09B
:100D9000FFF7E2FD064604E0FFF7DEFD801B0228B8
:100DA0001FD828688007F7D42078000722D5864FFF
:100DB00087486169703771B101210160FFF7CCFD8F
:100DC000064604E0FFF7C8FD801B022809D83868F2
:100DD0008007F7D50EE0C0F800A0FFF7BDFD06467E
:100DE00005E082E0FFF7B8FD801B02287DD8386857
:100DF0008007F7D42078400768D5DFF8CCB100270A
:100E00000BF13C0BDBF80000C0000BD4DBF800104A
:100E100041F08051CBF80010DBF80000012700F012
:100E2000805000906B4E3068C00510D4306840F49C
:100E300080703060FFF790FD009005E0FFF78CFDBB
:100E40000099401A022850D83068C005F6D55E4E89
:100E5000A0686C3601280FD00528306810D020F02B
:100E600001003060306820F004003060A068B8B144
:100E7000FFF772FD00900FE0306840F00100F4E7EA
:100E800040F004003060F7E7FFF766FD0099411A73
:100E900041F28830814266D830688007F4D50EE090
:100EA000FFF75AFD009007E0FFF756FD0099411A41
:100EB00041F28830814256D830688007F4D42FB18F
:100EC000DBF8001021F08051CBF80010A069C8B306
:100ED0003D49091D0968C1F3810102294AD0022850
:100EE000504607D0C8F8600000E03CE0FFF734FD52
:100EF00004463BE04746C8F86000FFF72DFD064674
:100F000005E000BFFFF728FD801B02282BD82868CA
:100F10008001F7D4D4E907010843A16A2E4A4908A1
:100F200002EB0141626A41EA8211084394F82C10F5
:100F300040EA0161C9F8001001203866FFF70CFD96
:100F4000044606E03EE000BFFFF706FD001B022856
:100F500009D828688001F7D534E000BFFFF7FCFC12
:100F6000001B022802D90320BDE8F88F2868800101
:100F7000F4D427E00128F7D0D9F80000E26900F4A2
:100F8000800191421CD1226A00F03F01914217D1A9
:100F900047F6C071626A0140B1EB821F10D1A26AAC
:100FA0004FF0FF3300F4403103EB5202B1EB024F3C
:100FB00006D194F82C1000F07060B0EB016F01D0F6
:100FC0000120D1E70020CFE704380240000047426B
:100FD000800E4742007000400000FFFF10B5401E29
:100FE000B0F1807F01D3012010BD4FF0E02460619B
:100FF0000F21601701F0B6F90020A06107202061E1
:10100000002010BD7047704770B590F83C20012A51
:1010100032D0012480F83C40022280F83D20036851
:101020005A689D6822F070060A6832435A60134B72
:1010300002689A4214D0B2F1804F11D0104B9A42FC
:101040000ED0104B9A420BD00F4B9A4208D00F4B48
:101050009A4205D00E4B9A4202D00E4B9A4204D1CE
:10106000496825F080031943916080F83D400021D4
:1010700080F83C10084670BD022070BD00000140A1
:101080000004004000080040000C00400004014043
:10109000004001400018004010B5040003D094F84F
:1010A0003D0010B107E0012010BD002084F83C0095
:1010B000204600F01FF8022084F83D00211D206822
:1010C00000F08CFE012084F8460084F83E0084F88D
:1010D0003F0084F8400084F8410084F8420084F81E
:1010E000430084F8440084F8450084F83D00002063
:1010F00010BD000010B586B0044614216846FFF705
:1011000097F817492068884227D1164800210268BD
:1011100042F002020260006800F0020005901148EF
:101120001038026842F004020260006800F0040017
:1011300005904FF4007000900220CDE90101CDE947
:10114000031069460848FFF70FFB002201211D200C
:10115000FFF770FC1D20FFF75FFC06B010BD00001C
:1011600000040040403802400008024070B50446C8
:1011700090F83C000025012817D0012684F83C6037
:10118000022084F83D002068826822F0770222F471
:101190007F4282600868502838D00DDC20284FD06C
:1011A00005DC90B3102811D14AE0022070BD302830
:1011B00046D040280AD13BE060282FD070280DD0BF
:1011C000B0F5805F03D0B0F5005F12D0012584F840
:1011D0003D60002084F83C00284670BDCB68D1E912
:1011E0000121206800F073FE2068816841F07701DA
:1011F00009E0CB68D1E90121206800F068FE206891
:10120000816841F480418160E1E719E0CA6849687A
:10121000206800F031FF5021206806E0CA68496864
:10122000206800F07BFF6021206800F05AFECEE7C6
:10123000CA684968206800F01FFF40212068F4E771
:10124000226801461046F0E72DE9F0414D4D2DEDA5
:10125000048B0068296888427ED14B4C4B4E207825
:1012600000286AD0012879D0022875D10C2128469F
:1012700000F0EBFBB0600C21284600F0DFF9D6E966
:1012800000016278081A801A6060B368591A8E1AD1
:10129000A660FFF760F99FED3E9B53EC192BFFF71B
:1012A00079F841EC180B304684ED048BFFF753F9C5
:1012B00053EC192BFFF76EF841EC100B51EC180BA7
:1012C00084ED060B53EC102BFEF7BDFF0F4647ECE9
:1012D000100B064653EC102B9FED2F0B51EC100B0F
:1012E000FFF7CAF89FED2E1B53EC112BFFF752F8B6
:1012F00047EC106BC4E9080153EC102B51EC180BB0
:10130000FFF7BAF89FED281B53EC112BFFF742F8BB
:10131000C4E90A010020207060702868016A21F485
:10132000204101622868016A01622846BDEC048BF5
:101330000C21BDE8F04100F0FBB80C21114800F091
:1013400084FB30602868016A21F42041016228682A
:10135000016A41F400510DE010E0FFE70C2109485B
:1013600000F073FB70602868016A21F4204101627B
:101370002868016A01622078401C2070BDEC048B53
:10138000BDE8F08150000020000000204400002053
:10139000FCA9F1D24D62503F000000000000F03F78
:1013A0000000000000408F40000000000000594095
:1013B0002DE9F041054690F83C0000260C46012836
:1013C00010D0012085F83C0072B1042A1CD0082AF4
:1013D0002CD00C2A50D00126002085F83C00304645
:1013E000BDE8F0810220FBE7D4E90012E368286839
:1013F00000F054FE2868816921F00C0181612868A1
:101400008169A26811430FE0D4E90012E3682868FB
:1014100000F096FE2868816921F4406181612868A6
:101420008169A26841EA02218161D5E72868D4E98F
:10143000002C277B036A016A21F480710162C16973
:1014400023F4206321F0030141EA0C0121F0F00CA8
:1014500039074FF420674CEA116107EA02221A4368
:10146000C16102622868C16921F00C01C16128686C
:10147000C169A26811432BE02868D4E90021E7681C
:10148000036AD0F820C02CF4805CC0F820C0D0F8EB
:101490001CC023F420432CF4407C4CEA012121F4AD
:1014A000704C4FF6FF7101EA07314FF4204741EAD3
:1014B0000C0107EA02321A43C16102622868C1695D
:1014C00021F44061C1612868C169A26841EA022132
:1014D000C16181E710B5040003D094F83D0010B15C
:1014E00007E0012010BD002084F83C00204600F0F9
:1014F0001EF8022084F83D00211D206800F06EFCDB
:10150000012084F8460084F83E0084F83F0084F807
:10151000400084F8410084F8420084F8430084F8D5
:10152000440084F8450084F83D00002010BD704759
:1015300030B50446002551B104290DD0082910D03A
:1015400094F8410094F84520012811D10EE094F858
:101550003E0094F84220F7E794F83F0094F84320C7
:10156000F2E794F8400094F84420EDE7012A01D016
:10157000012030BD022059B1042912D0082919D008
:1015800084F8410084F845000C2944D0012540E04E
:1015900084F83E0084F842002068C26842F00202EB
:1015A00010E084F83F0084F843002068C26842F0ED
:1015B000040207E084F8400084F844002068C26810
:1015C00042F00802C2600122206800F073FC144956
:1015D0002068884214D0B0F1804F11D01149884260
:1015E0000ED0114988420BD01049884208D01049CA
:1015F000884205D00F49884202D00F49884204D161
:10160000816801F00701062903D0016841F001015A
:101610000160284630BD2068C26842F01002D1E760
:10162000000001400004004000080040000C0040A1
:1016300000040140004001400018004070B50D005A
:1016400004464FF0000607D0042D0AD0082D0DD017
:101650000C2D10D001262FE02068C16821F0020176
:101660000DE02068C16821F0040108E02068C1682D
:1016700021F0080103E02068C16821F01001C16079
:1016800000222946206800F015FC2068016A41F21A
:101690001112114207D1016A9210114203D101685F
:1016A00021F001010160012045B1042D09D0082D70
:1016B0000AD004F8410F2071304670BD04F83E0F87
:1016C000F9E704F83F0FF6E704F8400FF3E72DE9D8
:1016D000F04104460068C66805694FF00007A90795
:1016E00013D5B10711D5F91E0161012020772068BB
:1016F00080698007204602D0FFF7A6FD04E000F0D5
:10170000A9F8204600F03BF92777680716D570073F
:1017100014D521686FF0040008610220207720684A
:10172000806910F4407F204602D0FFF78DFD04E071
:1017300000F090F8204600F022F92777280715D509
:10174000300713D521686FF0080008610420207766
:101750002068C0698007204602D0FFF775FD04E0CD
:1017600000F078F8204600F00AF92777E80616D549
:10177000F00614D521686FF010000861082020776A
:101780002068C06910F4407F204602D0FFF75CFD5E
:1017900004E000F05FF8204600F0F1F82777E80752
:1017A00008D0F00706D021686FF0010008612046DC
:1017B00000F04AF9280608D5300606D521686FF0F2
:1017C000800008612046FFF71DFC680608D57006FA
:1017D00006D521686FF040000861204600F04AF904
:1017E000A8060AD5B00608D521686FF02000086168
:1017F0002046BDE8F041FFF706BCBDE8F0810000DF
:1018000010B586B0044614216846FEF711FD0E4956
:101810002068884215D10D480021026842F0040278
:101820000260006800F0040005904FF480700090A2
:101830000220CDE90101CDE9031069460448FEF715
:1018400093FF06B010BD0000000400403038024095
:1018500000080240704770B5044690F83C0000262E
:101860000D4601280FD0012084F83C006AB1042AFB
:101870001DD0082A2FD00C2A3FD00126002084F842
:101880003C00304670BD022070BD206800F032FB85
:101890002068816941F0080181612068816921F037
:1018A00004018161206881692A69114311E020687F
:1018B00000F050FB2068816941F40061816120687B
:1018C000816921F480618161206881692A6941EA26
:1018D00002218161D2E7206800F072FB2068C169B3
:1018E00041F00801C1612068C16921F00401C161B2
:1018F0002068C1692A69114311E0206800F094FB57
:101900002068C16941F40061C1612068C16921F4A6
:101910008061C1612068C1692A6941EA0221C1610F
:10192000ACE710B5040003D094F83D0010B107E017
:10193000012010BD002084F83C00204600F01EF875
:10194000022084F83D00211D206800F047FA0120A4
:1019500084F8460084F83E0084F83F0084F8400094
:1019600084F8410084F8420084F8430084F844007D
:1019700084F8450084F83D00002010BD7047704792
:1019800010B50446022249B104290ED0082913D00B
:1019900094F84100012816D0012010BD94F83E00B3
:1019A0000128F9D184F83E200FE094F83F00012887
:1019B000F2D184F83F2008E094F840000128EBD1F0
:1019C00084F8402001E084F841200122206800F0E2
:1019D00071FA16492068164A884201D0904203D114
:1019E000436C43F4004343642068884213D0B0F151
:1019F000804F10D00F4988420DD00F4988420AD03D
:101A00000E49884207D0904205D00D49884202D045
:101A10000C49884204D1816801F00701062903D0EE
:101A2000016841F001010160002010BD000001408B
:101A3000000401400004004000080040000C004089
:101A4000004001400018004070470246002041B1AC
:101A5000042909D008290AD00C2901D11068006C8A
:101A600070471068406B70471068806B7047106853
:101A7000C06B7047704770B5040004D094F8410003
:101A8000002510B106E0012070BD84F840502046CA
:101A900000F024F8242084F841002068C16821F473
:101AA0000051C160204600F08DFB2068016921F4DF
:101AB000904101612068416921F02A01416120685B
:101AC000C16841F40051C1606564202084F8410080
:101AD00084F842006563002070BD000010B586B038
:101AE000044614216846FEF7A3FB13492068884288
:101AF00020D112480021026842F4003202600068DE
:101B000000F4003005900D481038026842F00102E0
:101B10000260006800F0010005900C200090022097
:101B2000CDE9010103200390072004906946044891
:101B3000FEF71AFE06B010BD0044004040380240D7
:101B4000000002402DE9F843044690F84100984611
:101B500016460D46202802D00220BDE8F88385B144
:101B60007EB100206064212084F84100FEF7F4FE7D
:101B7000A6848146E684A0682027B0F5805F02D065
:101B800003E00120E9E7206910B12E4600250EE0B0
:101B900000260CE08021204600F09AFBA8B9C6B1CF
:101BA00016F8010B21684860E08C401EE084E08C50
:101BB0004B464FF00002CDF800800028EAD14FF0EC
:101BC0004001204600F084FB40B184F841700320BE
:101BD000C3E735F8020BC0F30800E3E784F841706F
:101BE0000020BAE7FEE700000D4808B5016841F0A3
:101BF00080010160016801F080010091016841F0FD
:101C000001010160016801F001010091016841F0EA
:101C100004010160006800F00400009008BD0000AD
:101C20003038024010B592B000240B940C940D94FF
:101C30000E940F941C2168461094FEF7F9FA2A4876
:101C400007940894099427490A9401604721C0E940
:101C500001144FF6FF71C0E9031480218161FFF781
:101C60001BFA08B1FEF76CFD4FF480500B900BA9E6
:101C70001D48FFF77BFA08B1FEF762FD1A48FFF72F
:101C800050FE08B1FEF75CFD1748FFF723FC08B1D2
:101C9000FEF756FD0F940FA913481094FFF7B4F9FF
:101CA00008B1FEF74DFD6020CDE900040294082242
:101CB00069460D480494FFF7CEFD08B1FEF740FDDC
:101CC0000120CDE9074009940C2207A906480A948F
:101CD000FFF76EFB08B1FEF733FD0348FFF790FDF9
:101CE00012B010BD00040040500000200C4810B598
:101CF0000A4901604FF4E1314160002181600C220A
:101D0000C160C0E904128161C161FFF7B4FE00281F
:101D100003D0BDE81040FEF713BD10BD00440040E5
:101D200098000020FEE7FEE770477047FEF71ABEF6
:101D300030B593B030216846FEF77AFA14210CA82A
:101D4000FEF776FA1C480024016841F080510160DA
:101D5000006800F0805011901848016841F48041FB
:101D600001600068022500F480401190012003907A
:101D700010200490009506950820CDE907404820E2
:101D8000CDE9090504200B906846FEF771FF08B104
:101D900072B6FEE70F20CDE90C054FF48050CDE977
:101DA0000E4002210CA81094FEF776FE002801D008
:101DB00072B6FEE713B030BD4038024000700040FC
:101DC0000248016841F470010160704788ED00E04D
:101DD0000148FFF77CBC000050000020F0B502680D
:101DE000294C2A4D2A4E2B4F2B4B4FF0804CA042B2
:101DF00009D0604507D0A84205D0B04203D0B84210
:101E000001D0984204D122F0700E4A6842EA0E02D4
:101E1000A0421BD0604519D0A84217D0B04215D0BF
:101E2000B84213D0984211D01C4DA8420ED01C4D80
:101E3000A8420BD01B4DA84208D01B4DA84205D08C
:101E40001A4DA84202D01A4DA84203D122F440757F
:101E5000CA682A434D6922F080022A4302608A68D8
:101E6000C2620A688262A04201D0984201D1096927
:101E70000163012141610169C90703D0016921F0B2
:101E800001010161F0BD00000000014000040040BC
:101E900000080040000C00400004014000400140E8
:101EA000004401400048014000180040001C004070
:101EB0000020004010B501F01F030121046A994081
:101EC0008C430462016A9A401143016210BD10B54F
:101ED000846842EA032224F47F440A432243826056
:101EE00010BD826822F070020A4342F0070181604F
:101EF00070470000F0B5036A026A22F00102026234
:101F000042688469124E24F073050C682C4323F058
:101F100002058B682B430D4DA84201D0B04205D17C
:101F200023F00807CB683B4323F00403A84201D009
:101F3000B04205D14D6922F4407215438A692A43A3
:101F400042608461496841630362F0BD0000014062
:101F500000040140F0B5026A036A23F01003036233
:101F6000436884690D6824F4E64444EA05248D68D6
:101F700022F0200242EA05120F4D104EA84201D075
:101F8000B04206D1CF6822F0800242EA071222F066
:101F90004002A84201D0B04207D14D6923F440630A
:101FA00043EA85038D6943EA850343608461496898
:101FB00081630262F0BD00000000014000040140A6
:101FC000F0B5026A036A23F4807303624368C4694C
:101FD00022F4007224F073050C68124E2C438D68B5
:101FE00042EA05220E4DA84201D0B04206D1CF6888
:101FF00022F4006242EA072222F48062A84201D061
:10200000B04207D14D6923F4405343EA05138D696B
:1020100043EA05134360C4614968C1630262F0BDCD
:10202000000001400004014030B5046A026A22F455
:10203000805202624268C3690D6823F4E64343EAB2
:1020400005238D6824F4005444EA0534084DA84261
:1020500002D0084DA84204D14D6922F4804242EAE0
:1020600085124260C36149680164046230BD0000AA
:10207000000001400004014010B5036A046A24F026
:1020800001040462846924F0F00444EA021423F099
:102090000A020A438461026210BD000070B5056A3D
:1020A000046A24F0010404628469154EB04214D01D
:1020B000B0F1804F11D0134EB0420ED0124EB0424C
:1020C0000BD0124EB04208D0114EB04205D0114E86
:1020D000B04202D0104EB04203D124F003041443A6
:1020E00001E044F001041A0724F0F00444EA12620B
:1020F00025F00A0301F00A0119438261016270BDF3
:10210000000001400004004000080040000C0040B6
:1021100000040140004001400018004010B5036A6F
:10212000046A24F010040462846923F0A00324F4F8
:10213000704444EA023243EA01118261016210BD37
:1021400030B5046A056A25F010050562856925F435
:10215000407545EA022222F470454FF6FF7202EA0A
:10216000033224F0A0032A43A02404EA01111943F6
:102170008261016230BD01680C3151E8002F22F408
:10218000907241E80023002BF5D10168143151E829
:10219000002F22F0010241E80023002BF5D1016B52
:1021A000012909D101680C3151E8002F22F01002F9
:1021B00041E80023002BF5D1202180F842100021B6
:1021C0000163704770B5044600680169E26821F454
:1021D0004051114301612169A068E26908436169C6
:1021E000114308432168CA6849F20C639A430243C9
:1021F000CA6020684169A26921F4407111434161BC
:1022000031492068884202D03049884202D1FEF725
:10221000EDFC01E0FEF7DAFCE269002319216425F8
:102220003226B2F5004F626828D0A0FB0101930F5F
:102230009200FDF7C5FF0146B0FBF5F06FF0180204
:10224000504301EB800006EB0010B0FBF5F000F00E
:10225000F002B1FBF5F002EB0012B1FBF5F06FF00C
:102260001803584301EB800006EB0010B0FBF5F0BB
:1022700000F00F0021681044886070BDA0FB0101D0
:1022800092185B41FDF79CFF0146B0FBF5F002019F
:10229000B1FBF5F06FF01803584301EB800006EB3B
:1022A000C000B0FBF5F000F0F80002EB4002B1FB1B
:1022B000F5F0584301EB800006EBC000B0FBF5F0F1
:1022C00000F00700D6E700000010014000140140B4
:1022D0002DE9F843984617460D460446089E24E02B
:1022E000701C22D0FEF738FBA0EB0800B0421AD8D1
:1022F000CEB12068C168490717D5802D15D0402D73
:1023000013D00168C94309070FD40168002540684C
:1023100000902046FFF72FFF0820606484F84050AB
:102320000120BDE8F8830320FBE72068006835EA58
:10233000000004D00020B842D2D00020F1E70120F4
:10234000F9E7FEE70FB4054B10B503A9044A02985C
:1023500000F0DAF810BC5DF814FB0000392C00081E
:10236000400000200907090E002804DB00F1E020EE
:1023700080F80014704700F00F0000F1E02080F8B2
:10238000141D704702E008C8121F08C1002AFAD1C4
:1023900070477047002001E001C1121F002AFBD1E5
:1023A000704700002DE9FF5FDDE90220010DDDF837
:1023B00038B0024318D044F61050A1F2FF31414327
:1023C0000D140F98012820D0A5EB0B00401C5FEAEC
:1023D000000A4FF00004474EDFF81C91A04650461B
:1023E00016D5CAF1000728E00F98012443A201285E
:1023F00008D0002100980F9BC0E90021C0E90243EA
:10240000BDE8FF9F6FEA0B01F4E7CBF10000DEE7C8
:10241000074612E0F80707D02246334640464946B1
:10242000FDF7B8FF804689462246334610461946D6
:10243000FDF7B0FF04460E467F10002FEAD1DDE91C
:102440000201BAF1000F42464B4602DAFDF7A2FF45
:1024500001E0FEF711F804460E460022284BFEF775
:1024600043F903D84FF0FF30014607E00022254B27
:1024700020463146FDF7E7FEFEF71EF9102409E07D
:10248000002C0ADB0A220023FDF79AFE019B303262
:102490001A55641E50EA0102F2D1641C019AC4F17B
:1024A000110314440F9A012A03D0012208430DD1CD
:1024B0000AE0084304D000204FF0110B0F9080E792
:1024C000A3EB0B056D1E0DE05B4504DD4FF0000234
:1024D00005F1010504E003DA4FF00002A5F1010562
:1024E000002AECD000980F99C0E90231C0E90045FC
:1024F00086E70000000024400000F03F30000000AC
:102500000000F0430000E03F2DE9FF4F95B09B46EF
:102510008946064600250FE2252877D10024274664
:10252000F84A0121059400E0044316F8013F203BDE
:1025300001FA03F01042F7D130782A2811D06FF059
:102540002F033078A0F13002092A16D8059A44F0FA
:10255000020402EB820203EB42021044761C059057
:10256000EFE759F8042B0592002A03DA504244F4AD
:102570000054059044F00204761C30782E2816D1C1
:1025800016F8010F44F004042A280DD06FF02F0232
:102590003078A0F13003092B09D807EB870302EB51
:1025A0004303C718761CF3E759F8047B761C307890
:1025B0006C280FD006DC4C2817D068280DD06A286C
:1025C00014D104E0742810D07A280FD10DE044F41F
:1025D00000140AE044F4801401E044F440147278DA
:1025E000824202D104F58014761C761C307866286D
:1025F0000BD013DC582877D009DC002875D045288B
:10260000F6D04628F4D047281AD19DE118E0632877
:1026100035D0642879D0652812D195E1702873D01F
:1026200008DC6728F1D069286FD06E280DD06F289C
:1026300006D1B5E073282CD0752875D0782874D0D1
:102640005A46179990476D1C75E1C4F30250022851
:1026500009D003280DD0D9F8001004280DD00D6042
:1026600009F1040967E1D9F80010EA17C1E900523D
:10267000F6E7D9F800100D80F2E70D70F0E719F8D1
:10268000041B8DF8001000208DF80100EA4601209F
:1026900003E059F804AB4FF0FF3061074FF0000141
:1026A00002D40DE008F101018846B9420FDA8045F5
:1026B000F8DB1AF808100029F4D108E008F101014C
:1026C00088468142FADB1AF808100029F6D10598ED
:1026D0005B46A0EB080721463846179A00F094FAAB
:1026E000284400EB080507E04DE029E10DE01AF869
:1026F000010B5A4617999047B8F10108F7D25B468B
:1027000021463846179A13E142E00A220092C4F3A8
:1027100002524FF0000A022A08D059F804CB032ACB
:102720004FEAEC710AD00DE029E02AE009F1070137
:1027300021F00702F2E802C1914609E00FFA8CFC91
:102740004FEAEC71042A03D14FFA8CFC4FEAEC718A
:10275000002907DA0A460021DCF1000C61EB0201D6
:102760002D2202E0220504D52B228DF8042001221F
:1027700003E0E20701D02022F7E7904659E00A2162
:1027800002E010220DE010214FF0000A00910BE052
:1027900010224FF0000A44F004040827009203E0DE
:1027A00008224FF0000A0092C4F30252022A05D018
:1027B00059F804CB0021032A08D009E009F10701E8
:1027C00021F00702F2E802C1914605E01FFA8CFCF5
:1027D000042A01D10CF0FF0C4FF00008220728D585
:1027E000702806D0009B83F0100353EA0A0305D03B
:1027F0000EE040228DF80420012208E05CEA01028C
:1028000006D030228DF804208DF805000222904673
:10281000009B83F0080353EA0A030AD15CEA010231
:1028200001D1620705D530228DF804204FF0010850
:102830007F1E582804D034A003900EA802900DE00B
:1028400036A0F9E753466046009AFDF7B9FC844686
:102850000398825C0298401E029002705CEA0100BC
:10286000F0D1029806A9081A00F1200A600702D5E3
:1028700024F4803400E00127574502DDA7EB0A006D
:1028800000E0002000EB0A01009005984144401A46
:102890000590E00306D45B462146179A059800F0A0
:1028A000B3F90544002706E001A85A46C05D179910
:1028B00090476D1C7F1C4745F6DBE0030CD55B465B
:1028C0002146179A059800F09FF9054404E030204E
:1028D0005A46179990476D1C0099481E0090002990
:1028E000F5DC08E0029802995A460078491C0291EA
:1028F000179990476D1CBAF10001AAF1010AF1DCA9
:1029000065E10000092801003031323334353637B3
:10291000383961626364656600000000303132332B
:1029200034353637383941424344454600000000CB
:1029300000F058F90544761C307800287FF4ECAD9F
:1029400019B02846BDE8F08F620700D4062709F1C8
:10295000070222F0070CFCE80223E14603F00048DE
:102960005FEA080C02D00FF2702C0DE05FEA045C05
:1029700002D50FF2682C07E05FEAC47C02D00FF2A8
:10298000602C01E0AFF2700C4FF0FF3823F00043F1
:10299000CDF850C065280CD006DC452809D0462863
:1029A0001DD047283DD13DE0662818D067287ED14C
:1029B00038E00021112F01DB112000E0781CCDE967
:1029C000000106A90EA8FFF7EDFCDDE90F010E9A44
:1029D00003910021009207F1010A04914DE04FF0AC
:1029E00000400097CDE9011006A90EA8FFF7DAFC18
:1029F000DDE90F0203920E9B11990022DDF80CA075
:102A00000093049211B9791C00EB010AB7EB0A009C
:102A100004D4C0F1FF3007F1010A0490AAEB0700CB
:102A2000019044E0012F00DA01270021112F01DD80
:102A3000112000E03846CDE9000106A90EA8FFF7F5
:102A4000B1FCDDE90F010E9A03910021049100927F
:102A5000BA4621070CD40399514500DA8A46BAF1E7
:102A6000010F05DD009AAAF10101515C302908D05F
:102A7000B84202DA10F1040F06DA0121CDE90110A3
:102A800015E0AAF10101E9E7002805DC04990144F9
:102A90000491AAEB000102E0411C514500DD8A4689
:102AA0000499401A401C01904FF00040029020070A
:102AB00004D40198504501DBCDF8048000208DF846
:102AC0004F0002980DF14F07B0F1004F25D02B2099
:102AD0000E9002984FF0020800280CDA4042029053
:102AE0002D200E9007E00A210298FDF741FD3031BC
:102AF000029007F8011DB8F10001A8F10108F2DC0D
:102B000002980028EFD1791E0E980870307800F0F6
:102B1000200040F0450007F8020D12A8C01B00F18C
:102B200007081498007800B1012000EB0A01019811
:102B300001EBE07105984144401A401E0590E00306
:102B400006D45B462146179A059800F05DF80544C7
:102B50001498007818B15A46179990476D1CE003F5
:102B600024D55B462146179A059800F04DF8054498
:102B70001CE00498002807DBDDE90301884203DD3F
:102B80000098405C179901E0179930205A46904709
:102B9000049805F10105401C04900198401E019025
:102BA00004D12E205A46179990476D1CBAF10001A6
:102BB000AAF1010ADDDC05E017F8010B5A46179966
:102BC00090476D1CB8F10001A8F10108F4DC5B46E8
:102BD0002146179A0598ABE62D0000002B00000057
:102BE000200000002DE9F041044600251E4617464E
:102BF000880404D405E039462020B0476D1C641ECB
:102C0000F9D52846BDE8F0812DE9F04104460025BC
:102C10001E469046C80301D5302700E020278804CF
:102C200004D505E041463846B0476D1C641EF9D511
:102C30002846BDE8F081000013B54FF47A730122F5
:102C400069460248FEF77EFF00201CBD9800002068
:102C500086B0002440F28F27FDF78CFEFFF768F85E
:102C6000FEF7C2FFFEF7DEFFFFF740F808211C4821
:102C7000FEF786FE1A4E3068016A21F42061016277
:102C80003068016A01620C213046FEF751FC154D97
:102C90004FF47A780520641CFDF754FD0821104894
:102CA000FEF76EFE316804FB07F0C863642C00DB9E
:102CB000002495ED060B0C488DED040B95ED040BEF
:102CC0008DED020B95ED0A0B8DED000B95ED080BCC
:102CD00053EC102BFFF736FB4046FDF733FDD9E7E9
:102CE0005000002000000020042D0008000000001B
:102CF00000000000010203040607080900000000AC
:102D000001020304C6B5C2CA3A25372E33316648DC
:102D10007A2CD5BCBFD5B1C83A25342E31316625C1
:102D2000252CB8DFB5E7C6BDCAB1BCE43A25372EBD
:102D30003331666D732CB5CDB5E7C6BDCAB1BCE401
:102D40003A25372E3331666D730D0A0D0A000000E7
:102D5000702D0008000000204400000084230008BB
:102D6000B42D0008440000209C04000094230008B7
:102D70000000000000000000000000000000000053
:102D80000000000000000000000000000000000043
:102D90000000000000000000000000000000000033
:102DA0000100000010000000000000000024F400FA
:042DB000000000001F
:040000050800018965
:00000001FF
